{
  "_format": "hh-sol-artifact-1",
  "contractName": "TheCooniesNFT",
  "sourceName": "contracts/TheCooniesNFT.sol",
  "abi": [
    {
      "inputs": [
        {
          "internalType": "string",
          "name": "_tokenName",
          "type": "string"
        },
        {
          "internalType": "string",
          "name": "_tokenSymbol",
          "type": "string"
        },
        {
          "internalType": "uint256",
          "name": "_cost",
          "type": "uint256"
        },
        {
          "internalType": "uint256",
          "name": "_maxSupply",
          "type": "uint256"
        },
        {
          "internalType": "uint256",
          "name": "_maxMintAmountPerTx",
          "type": "uint256"
        },
        {
          "internalType": "string",
          "name": "_hiddenMetadataUri",
          "type": "string"
        }
      ],
      "stateMutability": "nonpayable",
      "type": "constructor"
    },
    {
      "inputs": [],
      "name": "ApprovalCallerNotOwnerNorApproved",
      "type": "error"
    },
    {
      "inputs": [],
      "name": "ApprovalQueryForNonexistentToken",
      "type": "error"
    },
    {
      "inputs": [],
      "name": "ApprovalToCurrentOwner",
      "type": "error"
    },
    {
      "inputs": [],
      "name": "ApproveToCaller",
      "type": "error"
    },
    {
      "inputs": [],
      "name": "BalanceQueryForZeroAddress",
      "type": "error"
    },
    {
      "inputs": [],
      "name": "InvalidQueryRange",
      "type": "error"
    },
    {
      "inputs": [],
      "name": "MintToZeroAddress",
      "type": "error"
    },
    {
      "inputs": [],
      "name": "MintZeroQuantity",
      "type": "error"
    },
    {
      "inputs": [],
      "name": "OwnerQueryForNonexistentToken",
      "type": "error"
    },
    {
      "inputs": [],
      "name": "TransferCallerNotOwnerNorApproved",
      "type": "error"
    },
    {
      "inputs": [],
      "name": "TransferFromIncorrectOwner",
      "type": "error"
    },
    {
      "inputs": [],
      "name": "TransferToNonERC721ReceiverImplementer",
      "type": "error"
    },
    {
      "inputs": [],
      "name": "TransferToZeroAddress",
      "type": "error"
    },
    {
      "inputs": [],
      "name": "URIQueryForNonexistentToken",
      "type": "error"
    },
    {
      "anonymous": false,
      "inputs": [
        {
          "indexed": true,
          "internalType": "address",
          "name": "owner",
          "type": "address"
        },
        {
          "indexed": true,
          "internalType": "address",
          "name": "approved",
          "type": "address"
        },
        {
          "indexed": true,
          "internalType": "uint256",
          "name": "tokenId",
          "type": "uint256"
        }
      ],
      "name": "Approval",
      "type": "event"
    },
    {
      "anonymous": false,
      "inputs": [
        {
          "indexed": true,
          "internalType": "address",
          "name": "owner",
          "type": "address"
        },
        {
          "indexed": true,
          "internalType": "address",
          "name": "operator",
          "type": "address"
        },
        {
          "indexed": false,
          "internalType": "bool",
          "name": "approved",
          "type": "bool"
        }
      ],
      "name": "ApprovalForAll",
      "type": "event"
    },
    {
      "anonymous": false,
      "inputs": [
        {
          "indexed": true,
          "internalType": "address",
          "name": "previousOwner",
          "type": "address"
        },
        {
          "indexed": true,
          "internalType": "address",
          "name": "newOwner",
          "type": "address"
        }
      ],
      "name": "OwnershipTransferred",
      "type": "event"
    },
    {
      "anonymous": false,
      "inputs": [
        {
          "indexed": true,
          "internalType": "address",
          "name": "from",
          "type": "address"
        },
        {
          "indexed": true,
          "internalType": "address",
          "name": "to",
          "type": "address"
        },
        {
          "indexed": true,
          "internalType": "uint256",
          "name": "tokenId",
          "type": "uint256"
        }
      ],
      "name": "Transfer",
      "type": "event"
    },
    {
      "inputs": [
        {
          "internalType": "address",
          "name": "to",
          "type": "address"
        },
        {
          "internalType": "uint256",
          "name": "tokenId",
          "type": "uint256"
        }
      ],
      "name": "approve",
      "outputs": [],
      "stateMutability": "nonpayable",
      "type": "function"
    },
    {
      "inputs": [
        {
          "internalType": "address",
          "name": "owner",
          "type": "address"
        }
      ],
      "name": "balanceOf",
      "outputs": [
        {
          "internalType": "uint256",
          "name": "",
          "type": "uint256"
        }
      ],
      "stateMutability": "view",
      "type": "function"
    },
    {
      "inputs": [],
      "name": "cost",
      "outputs": [
        {
          "internalType": "uint256",
          "name": "",
          "type": "uint256"
        }
      ],
      "stateMutability": "view",
      "type": "function"
    },
    {
      "inputs": [
        {
          "internalType": "uint256",
          "name": "tokenId",
          "type": "uint256"
        }
      ],
      "name": "explicitOwnershipOf",
      "outputs": [
        {
          "components": [
            {
              "internalType": "address",
              "name": "addr",
              "type": "address"
            },
            {
              "internalType": "uint64",
              "name": "startTimestamp",
              "type": "uint64"
            },
            {
              "internalType": "bool",
              "name": "burned",
              "type": "bool"
            }
          ],
          "internalType": "struct IERC721A.TokenOwnership",
          "name": "",
          "type": "tuple"
        }
      ],
      "stateMutability": "view",
      "type": "function"
    },
    {
      "inputs": [
        {
          "internalType": "uint256[]",
          "name": "tokenIds",
          "type": "uint256[]"
        }
      ],
      "name": "explicitOwnershipsOf",
      "outputs": [
        {
          "components": [
            {
              "internalType": "address",
              "name": "addr",
              "type": "address"
            },
            {
              "internalType": "uint64",
              "name": "startTimestamp",
              "type": "uint64"
            },
            {
              "internalType": "bool",
              "name": "burned",
              "type": "bool"
            }
          ],
          "internalType": "struct IERC721A.TokenOwnership[]",
          "name": "",
          "type": "tuple[]"
        }
      ],
      "stateMutability": "view",
      "type": "function"
    },
    {
      "inputs": [
        {
          "internalType": "uint256",
          "name": "tokenId",
          "type": "uint256"
        }
      ],
      "name": "getApproved",
      "outputs": [
        {
          "internalType": "address",
          "name": "",
          "type": "address"
        }
      ],
      "stateMutability": "view",
      "type": "function"
    },
    {
      "inputs": [],
      "name": "hiddenMetadataUri",
      "outputs": [
        {
          "internalType": "string",
          "name": "",
          "type": "string"
        }
      ],
      "stateMutability": "view",
      "type": "function"
    },
    {
      "inputs": [
        {
          "internalType": "address",
          "name": "owner",
          "type": "address"
        },
        {
          "internalType": "address",
          "name": "operator",
          "type": "address"
        }
      ],
      "name": "isApprovedForAll",
      "outputs": [
        {
          "internalType": "bool",
          "name": "",
          "type": "bool"
        }
      ],
      "stateMutability": "view",
      "type": "function"
    },
    {
      "inputs": [],
      "name": "maxMintAmountPerTx",
      "outputs": [
        {
          "internalType": "uint256",
          "name": "",
          "type": "uint256"
        }
      ],
      "stateMutability": "view",
      "type": "function"
    },
    {
      "inputs": [],
      "name": "maxSupply",
      "outputs": [
        {
          "internalType": "uint256",
          "name": "",
          "type": "uint256"
        }
      ],
      "stateMutability": "view",
      "type": "function"
    },
    {
      "inputs": [],
      "name": "merkleRoot",
      "outputs": [
        {
          "internalType": "bytes32",
          "name": "",
          "type": "bytes32"
        }
      ],
      "stateMutability": "view",
      "type": "function"
    },
    {
      "inputs": [
        {
          "internalType": "uint256",
          "name": "_mintAmount",
          "type": "uint256"
        }
      ],
      "name": "mint",
      "outputs": [],
      "stateMutability": "payable",
      "type": "function"
    },
    {
      "inputs": [
        {
          "internalType": "uint256",
          "name": "_mintAmount",
          "type": "uint256"
        },
        {
          "internalType": "address",
          "name": "_receiver",
          "type": "address"
        }
      ],
      "name": "mintForAddress",
      "outputs": [],
      "stateMutability": "nonpayable",
      "type": "function"
    },
    {
      "inputs": [],
      "name": "name",
      "outputs": [
        {
          "internalType": "string",
          "name": "",
          "type": "string"
        }
      ],
      "stateMutability": "view",
      "type": "function"
    },
    {
      "inputs": [],
      "name": "owner",
      "outputs": [
        {
          "internalType": "address",
          "name": "",
          "type": "address"
        }
      ],
      "stateMutability": "view",
      "type": "function"
    },
    {
      "inputs": [
        {
          "internalType": "uint256",
          "name": "tokenId",
          "type": "uint256"
        }
      ],
      "name": "ownerOf",
      "outputs": [
        {
          "internalType": "address",
          "name": "",
          "type": "address"
        }
      ],
      "stateMutability": "view",
      "type": "function"
    },
    {
      "inputs": [],
      "name": "paused",
      "outputs": [
        {
          "internalType": "bool",
          "name": "",
          "type": "bool"
        }
      ],
      "stateMutability": "view",
      "type": "function"
    },
    {
      "inputs": [],
      "name": "renounceOwnership",
      "outputs": [],
      "stateMutability": "nonpayable",
      "type": "function"
    },
    {
      "inputs": [],
      "name": "revealed",
      "outputs": [
        {
          "internalType": "bool",
          "name": "",
          "type": "bool"
        }
      ],
      "stateMutability": "view",
      "type": "function"
    },
    {
      "inputs": [
        {
          "internalType": "address",
          "name": "from",
          "type": "address"
        },
        {
          "internalType": "address",
          "name": "to",
          "type": "address"
        },
        {
          "internalType": "uint256",
          "name": "tokenId",
          "type": "uint256"
        }
      ],
      "name": "safeTransferFrom",
      "outputs": [],
      "stateMutability": "nonpayable",
      "type": "function"
    },
    {
      "inputs": [
        {
          "internalType": "address",
          "name": "from",
          "type": "address"
        },
        {
          "internalType": "address",
          "name": "to",
          "type": "address"
        },
        {
          "internalType": "uint256",
          "name": "tokenId",
          "type": "uint256"
        },
        {
          "internalType": "bytes",
          "name": "_data",
          "type": "bytes"
        }
      ],
      "name": "safeTransferFrom",
      "outputs": [],
      "stateMutability": "nonpayable",
      "type": "function"
    },
    {
      "inputs": [
        {
          "internalType": "address",
          "name": "operator",
          "type": "address"
        },
        {
          "internalType": "bool",
          "name": "approved",
          "type": "bool"
        }
      ],
      "name": "setApprovalForAll",
      "outputs": [],
      "stateMutability": "nonpayable",
      "type": "function"
    },
    {
      "inputs": [
        {
          "internalType": "uint256",
          "name": "_cost",
          "type": "uint256"
        }
      ],
      "name": "setCost",
      "outputs": [],
      "stateMutability": "nonpayable",
      "type": "function"
    },
    {
      "inputs": [
        {
          "internalType": "string",
          "name": "_hiddenMetadataUri",
          "type": "string"
        }
      ],
      "name": "setHiddenMetadataUri",
      "outputs": [],
      "stateMutability": "nonpayable",
      "type": "function"
    },
    {
      "inputs": [
        {
          "internalType": "uint256",
          "name": "_maxMintAmountPerTx",
          "type": "uint256"
        }
      ],
      "name": "setMaxMintAmountPerTx",
      "outputs": [],
      "stateMutability": "nonpayable",
      "type": "function"
    },
    {
      "inputs": [
        {
          "internalType": "bytes32",
          "name": "_merkleRoot",
          "type": "bytes32"
        }
      ],
      "name": "setMerkleRoot",
      "outputs": [],
      "stateMutability": "nonpayable",
      "type": "function"
    },
    {
      "inputs": [
        {
          "internalType": "bool",
          "name": "_state",
          "type": "bool"
        }
      ],
      "name": "setPaused",
      "outputs": [],
      "stateMutability": "nonpayable",
      "type": "function"
    },
    {
      "inputs": [
        {
          "internalType": "bool",
          "name": "_state",
          "type": "bool"
        }
      ],
      "name": "setRevealed",
      "outputs": [],
      "stateMutability": "nonpayable",
      "type": "function"
    },
    {
      "inputs": [
        {
          "internalType": "string",
          "name": "_uriPrefix",
          "type": "string"
        }
      ],
      "name": "setUriPrefix",
      "outputs": [],
      "stateMutability": "nonpayable",
      "type": "function"
    },
    {
      "inputs": [
        {
          "internalType": "string",
          "name": "_uriSuffix",
          "type": "string"
        }
      ],
      "name": "setUriSuffix",
      "outputs": [],
      "stateMutability": "nonpayable",
      "type": "function"
    },
    {
      "inputs": [
        {
          "internalType": "bool",
          "name": "_state",
          "type": "bool"
        }
      ],
      "name": "setWhitelistMintEnabled",
      "outputs": [],
      "stateMutability": "nonpayable",
      "type": "function"
    },
    {
      "inputs": [
        {
          "internalType": "bytes4",
          "name": "interfaceId",
          "type": "bytes4"
        }
      ],
      "name": "supportsInterface",
      "outputs": [
        {
          "internalType": "bool",
          "name": "",
          "type": "bool"
        }
      ],
      "stateMutability": "view",
      "type": "function"
    },
    {
      "inputs": [],
      "name": "symbol",
      "outputs": [
        {
          "internalType": "string",
          "name": "",
          "type": "string"
        }
      ],
      "stateMutability": "view",
      "type": "function"
    },
    {
      "inputs": [
        {
          "internalType": "uint256",
          "name": "_tokenId",
          "type": "uint256"
        }
      ],
      "name": "tokenURI",
      "outputs": [
        {
          "internalType": "string",
          "name": "",
          "type": "string"
        }
      ],
      "stateMutability": "view",
      "type": "function"
    },
    {
      "inputs": [
        {
          "internalType": "address",
          "name": "owner",
          "type": "address"
        }
      ],
      "name": "tokensOfOwner",
      "outputs": [
        {
          "internalType": "uint256[]",
          "name": "",
          "type": "uint256[]"
        }
      ],
      "stateMutability": "view",
      "type": "function"
    },
    {
      "inputs": [
        {
          "internalType": "address",
          "name": "owner",
          "type": "address"
        },
        {
          "internalType": "uint256",
          "name": "start",
          "type": "uint256"
        },
        {
          "internalType": "uint256",
          "name": "stop",
          "type": "uint256"
        }
      ],
      "name": "tokensOfOwnerIn",
      "outputs": [
        {
          "internalType": "uint256[]",
          "name": "",
          "type": "uint256[]"
        }
      ],
      "stateMutability": "view",
      "type": "function"
    },
    {
      "inputs": [],
      "name": "totalSupply",
      "outputs": [
        {
          "internalType": "uint256",
          "name": "",
          "type": "uint256"
        }
      ],
      "stateMutability": "view",
      "type": "function"
    },
    {
      "inputs": [
        {
          "internalType": "address",
          "name": "from",
          "type": "address"
        },
        {
          "internalType": "address",
          "name": "to",
          "type": "address"
        },
        {
          "internalType": "uint256",
          "name": "tokenId",
          "type": "uint256"
        }
      ],
      "name": "transferFrom",
      "outputs": [],
      "stateMutability": "nonpayable",
      "type": "function"
    },
    {
      "inputs": [
        {
          "internalType": "address",
          "name": "newOwner",
          "type": "address"
        }
      ],
      "name": "transferOwnership",
      "outputs": [],
      "stateMutability": "nonpayable",
      "type": "function"
    },
    {
      "inputs": [],
      "name": "uriPrefix",
      "outputs": [
        {
          "internalType": "string",
          "name": "",
          "type": "string"
        }
      ],
      "stateMutability": "view",
      "type": "function"
    },
    {
      "inputs": [],
      "name": "uriSuffix",
      "outputs": [
        {
          "internalType": "string",
          "name": "",
          "type": "string"
        }
      ],
      "stateMutability": "view",
      "type": "function"
    },
    {
      "inputs": [
        {
          "internalType": "address",
          "name": "",
          "type": "address"
        }
      ],
      "name": "whitelistClaimed",
      "outputs": [
        {
          "internalType": "bool",
          "name": "",
          "type": "bool"
        }
      ],
      "stateMutability": "view",
      "type": "function"
    },
    {
      "inputs": [
        {
          "internalType": "uint256",
          "name": "_mintAmount",
          "type": "uint256"
        },
        {
          "internalType": "bytes32[]",
          "name": "_merkleProof",
          "type": "bytes32[]"
        }
      ],
      "name": "whitelistMint",
      "outputs": [],
      "stateMutability": "payable",
      "type": "function"
    },
    {
      "inputs": [],
      "name": "whitelistMintEnabled",
      "outputs": [
        {
          "internalType": "bool",
          "name": "",
          "type": "bool"
        }
      ],
      "stateMutability": "view",
      "type": "function"
    },
    {
      "inputs": [],
      "name": "withdraw",
      "outputs": [],
      "stateMutability": "nonpayable",
      "type": "function"
    }
  ],
  "bytecode": "0x60a06040819052600060808190526200001b91600c91620001f7565b5060408051808201909152600580825264173539b7b760d91b60209092019182526200004a91600d91620001f7565b506012805462ffffff191660011790553480156200006757600080fd5b5060405162002e6d38038062002e6d8339810160408190526200008a916200036a565b855186908690620000a3906002906020850190620001f7565b508051620000b9906003906020840190620001f7565b5050600160005550620000cc3362000103565b6001600955620000dc8462000155565b6010839055620000ec8262000164565b620000f78162000173565b50505050505062000454565b600880546001600160a01b038381166001600160a01b0319831681179093556040519116919082907f8be0079c531659141344cd1fd0a4f28419497f9722a3daafe3b4186f6b6457e090600090a35050565b6200015f62000196565b600f55565b6200016e62000196565b601155565b6200017d62000196565b80516200019290600e906020840190620001f7565b5050565b6008546001600160a01b03163314620001f55760405162461bcd60e51b815260206004820181905260248201527f4f776e61626c653a2063616c6c6572206973206e6f7420746865206f776e6572604482015260640160405180910390fd5b565b828054620002059062000417565b90600052602060002090601f01602090048101928262000229576000855562000274565b82601f106200024457805160ff191683800117855562000274565b8280016001018555821562000274579182015b828111156200027457825182559160200191906001019062000257565b506200028292915062000286565b5090565b5b8082111562000282576000815560010162000287565b634e487b7160e01b600052604160045260246000fd5b600082601f830112620002c557600080fd5b81516001600160401b0380821115620002e257620002e26200029d565b604051601f8301601f19908116603f011681019082821181831017156200030d576200030d6200029d565b816040528381526020925086838588010111156200032a57600080fd5b600091505b838210156200034e57858201830151818301840152908201906200032f565b83821115620003605760008385830101525b9695505050505050565b60008060008060008060c087890312156200038457600080fd5b86516001600160401b03808211156200039c57600080fd5b620003aa8a838b01620002b3565b97506020890151915080821115620003c157600080fd5b620003cf8a838b01620002b3565b965060408901519550606089015194506080890151935060a0890151915080821115620003fb57600080fd5b506200040a89828a01620002b3565b9150509295509295509295565b600181811c908216806200042c57607f821691505b602082108114156200044e57634e487b7160e01b600052602260045260246000fd5b50919050565b612a0980620004646000396000f3fe6080604052600436106102725760003560e01c8063715018a61161014f578063b071401b116100c1578063d5abeb011161007a578063d5abeb0114610738578063db4bec441461074e578063e0a808531461077e578063e985e9c51461079e578063efbd73f4146107be578063f2fde38b146107de57600080fd5b8063b071401b14610678578063b767a09814610698578063b88d4fde146106b8578063c23dc68f146106d8578063c87b56dd14610705578063d2cab0561461072557600080fd5b806394354fd01161011357806394354fd0146105e557806395d89b41146105fb57806399a2557a14610610578063a0712d6814610630578063a22cb46514610643578063a45ba8e71461066357600080fd5b8063715018a6146105455780637cb647591461055a5780637ec4a6591461057a5780638462151c1461059a5780638da5cb5b146105c757600080fd5b806342842e0e116101e85780635bbb2177116101ac5780635bbb21771461048a5780635c975abb146104b757806362b99ad4146104d15780636352211e146104e65780636caede3d1461050657806370a082311461052557600080fd5b806342842e0e146103f557806344a0d68a146104155780634fdd43cb1461043557806351830227146104555780635503a0e81461047557600080fd5b806316ba10e01161023a57806316ba10e01461034c57806316c38b3c1461036c57806318160ddd1461038c57806323b872dd146103aa5780632eb4a7ab146103ca5780633ccfd60b146103e057600080fd5b806301ffc9a71461027757806306fdde03146102ac578063081812fc146102ce578063095ea7b31461030657806313faede614610328575b600080fd5b34801561028357600080fd5b5061029761029236600461222a565b6107fe565b60405190151581526020015b60405180910390f35b3480156102b857600080fd5b506102c1610850565b6040516102a3919061229f565b3480156102da57600080fd5b506102ee6102e93660046122b2565b6108e2565b6040516001600160a01b0390911681526020016102a3565b34801561031257600080fd5b506103266103213660046122e7565b610926565b005b34801561033457600080fd5b5061033e600f5481565b6040519081526020016102a3565b34801561035857600080fd5b506103266103673660046123ae565b6109ad565b34801561037857600080fd5b50610326610387366004612406565b6109cc565b34801561039857600080fd5b5061033e600154600054036000190190565b3480156103b657600080fd5b506103266103c5366004612421565b6109e7565b3480156103d657600080fd5b5061033e600a5481565b3480156103ec57600080fd5b506103266109f2565b34801561040157600080fd5b50610326610410366004612421565b610a80565b34801561042157600080fd5b506103266104303660046122b2565b610a9b565b34801561044157600080fd5b506103266104503660046123ae565b610aa8565b34801561046157600080fd5b506012546102979062010000900460ff1681565b34801561048157600080fd5b506102c1610ac3565b34801561049657600080fd5b506104aa6104a536600461245d565b610b51565b6040516102a39190612502565b3480156104c357600080fd5b506012546102979060ff1681565b3480156104dd57600080fd5b506102c1610c17565b3480156104f257600080fd5b506102ee6105013660046122b2565b610c24565b34801561051257600080fd5b5060125461029790610100900460ff1681565b34801561053157600080fd5b5061033e61054036600461256c565b610c36565b34801561055157600080fd5b50610326610c84565b34801561056657600080fd5b506103266105753660046122b2565b610c96565b34801561058657600080fd5b506103266105953660046123ae565b610ca3565b3480156105a657600080fd5b506105ba6105b536600461256c565b610cbe565b6040516102a39190612587565b3480156105d357600080fd5b506008546001600160a01b03166102ee565b3480156105f157600080fd5b5061033e60115481565b34801561060757600080fd5b506102c1610e0b565b34801561061c57600080fd5b506105ba61062b3660046125bf565b610e1a565b61032661063e3660046122b2565b610fe0565b34801561064f57600080fd5b5061032661065e3660046125f2565b611106565b34801561066f57600080fd5b506102c161119c565b34801561068457600080fd5b506103266106933660046122b2565b6111a9565b3480156106a457600080fd5b506103266106b3366004612406565b6111b6565b3480156106c457600080fd5b506103266106d3366004612625565b6111d8565b3480156106e457600080fd5b506106f86106f33660046122b2565b611222565b6040516102a391906126a0565b34801561071157600080fd5b506102c16107203660046122b2565b6112dc565b6103266107333660046126d5565b61144b565b34801561074457600080fd5b5061033e60105481565b34801561075a57600080fd5b5061029761076936600461256c565b600b6020526000908152604090205460ff1681565b34801561078a57600080fd5b50610326610799366004612406565b6116b0565b3480156107aa57600080fd5b506102976107b9366004612753565b6116d4565b3480156107ca57600080fd5b506103266107d936600461277d565b611702565b3480156107ea57600080fd5b506103266107f936600461256c565b611780565b60006001600160e01b031982166380ac58cd60e01b148061082f57506001600160e01b03198216635b5e139f60e01b145b8061084a57506301ffc9a760e01b6001600160e01b03198316145b92915050565b60606002805461085f906127a0565b80601f016020809104026020016040519081016040528092919081815260200182805461088b906127a0565b80156108d85780601f106108ad576101008083540402835291602001916108d8565b820191906000526020600020905b8154815290600101906020018083116108bb57829003601f168201915b5050505050905090565b60006108ed826117f9565b61090a576040516333d1c03960e21b815260040160405180910390fd5b506000908152600660205260409020546001600160a01b031690565b600061093182610c24565b9050806001600160a01b0316836001600160a01b031614156109665760405163250fdee360e21b815260040160405180910390fd5b336001600160a01b0382161461099d5761098081336116d4565b61099d576040516367d9dca160e11b815260040160405180910390fd5b6109a8838383611832565b505050565b6109b561188e565b80516109c890600d90602084019061217b565b5050565b6109d461188e565b6012805460ff1916911515919091179055565b6109a88383836118e8565b6109fa61188e565b610a02611ad5565b6000610a166008546001600160a01b031690565b6001600160a01b03164760405160006040518083038185875af1925050503d8060008114610a60576040519150601f19603f3d011682016040523d82523d6000602084013e610a65565b606091505b5050905080610a7357600080fd5b50610a7e6001600955565b565b6109a8838383604051806020016040528060008152506111d8565b610aa361188e565b600f55565b610ab061188e565b80516109c890600e90602084019061217b565b600d8054610ad0906127a0565b80601f0160208091040260200160405190810160405280929190818152602001828054610afc906127a0565b8015610b495780601f10610b1e57610100808354040283529160200191610b49565b820191906000526020600020905b815481529060010190602001808311610b2c57829003601f168201915b505050505081565b80516060906000816001600160401b03811115610b7057610b70612311565b604051908082528060200260200182016040528015610bbb57816020015b6040805160608101825260008082526020808301829052928201528252600019909201910181610b8e5790505b50905060005b828114610c0f57610bea858281518110610bdd57610bdd6127db565b6020026020010151611222565b828281518110610bfc57610bfc6127db565b6020908102919091010152600101610bc1565b509392505050565b600c8054610ad0906127a0565b6000610c2f82611b2f565b5192915050565b60006001600160a01b038216610c5f576040516323d3ad8160e21b815260040160405180910390fd5b506001600160a01b03166000908152600560205260409020546001600160401b031690565b610c8c61188e565b610a7e6000611c51565b610c9e61188e565b600a55565b610cab61188e565b80516109c890600c90602084019061217b565b60606000806000610cce85610c36565b90506000816001600160401b03811115610cea57610cea612311565b604051908082528060200260200182016040528015610d13578160200160208202803683370190505b509050610d39604080516060810182526000808252602082018190529181019190915290565b60015b838614610dff57600081815260046020908152604091829020825160608101845290546001600160a01b0381168252600160a01b81046001600160401b031692820192909252600160e01b90910460ff16158015928201929092529250610da257610df7565b81516001600160a01b031615610db757815194505b876001600160a01b0316856001600160a01b03161415610df75780838780600101985081518110610dea57610dea6127db565b6020026020010181815250505b600101610d3c565b50909695505050505050565b60606003805461085f906127a0565b6060818310610e3c57604051631960ccad60e11b815260040160405180910390fd5b600080546001851015610e4e57600194505b80841115610e5a578093505b6000610e6587610c36565b905084861015610e845785850381811015610e7e578091505b50610e88565b5060005b6000816001600160401b03811115610ea257610ea2612311565b604051908082528060200260200182016040528015610ecb578160200160208202803683370190505b50905081610ede579350610fd992505050565b6000610ee988611222565b905060008160400151610efa575080515b885b888114158015610f0c5750848714155b15610fcd57600081815260046020908152604091829020825160608101845290546001600160a01b0381168252600160a01b81046001600160401b031692820192909252600160e01b90910460ff16158015928201929092529350610f7057610fc5565b82516001600160a01b031615610f8557825191505b8a6001600160a01b0316826001600160a01b03161415610fc55780848880600101995081518110610fb857610fb86127db565b6020026020010181815250505b600101610efc565b50505092835250909150505b9392505050565b80600081118015610ff357506011548111155b6110185760405162461bcd60e51b815260040161100f906127f1565b60405180910390fd5b6010548161102d600154600054036000190190565b6110379190612835565b11156110555760405162461bcd60e51b815260040161100f9061284d565b8180600f54611064919061287b565b3410156110a95760405162461bcd60e51b8152602060048201526013602482015272496e73756666696369656e742066756e64732160681b604482015260640161100f565b60125460ff16156110fc5760405162461bcd60e51b815260206004820152601760248201527f54686520636f6e74726163742069732070617573656421000000000000000000604482015260640161100f565b6109a83384611ca3565b6001600160a01b0382163314156111305760405163b06307db60e01b815260040160405180910390fd5b3360008181526007602090815260408083206001600160a01b03871680855290835292819020805460ff191686151590811790915590519081529192917f17307eab39ab6107e8899845ad3d59bd9653f200f220920489ca2b5937696c31910160405180910390a35050565b600e8054610ad0906127a0565b6111b161188e565b601155565b6111be61188e565b601280549115156101000261ff0019909216919091179055565b6111e38484846118e8565b6001600160a01b0383163b1561121c576111ff84848484611cbd565b61121c576040516368d2bf6b60e11b815260040160405180910390fd5b50505050565b6040805160608082018352600080835260208084018290528385018290528451928301855281835282018190529281019290925290600183108061126857506000548310155b156112735792915050565b50600082815260046020908152604091829020825160608101845290546001600160a01b0381168252600160a01b81046001600160401b031692820192909252600160e01b90910460ff1615801592820192909252906112d35792915050565b610fd983611b2f565b60606112e7826117f9565b61134b5760405162461bcd60e51b815260206004820152602f60248201527f4552433732314d657461646174613a2055524920717565727920666f72206e6f60448201526e3732bc34b9ba32b73a103a37b5b2b760891b606482015260840161100f565b60125462010000900460ff166113ed57600e8054611368906127a0565b80601f0160208091040260200160405190810160405280929190818152602001828054611394906127a0565b80156113e15780601f106113b6576101008083540402835291602001916113e1565b820191906000526020600020905b8154815290600101906020018083116113c457829003601f168201915b50505050509050919050565b60006113f7611db5565b905060008151116114175760405180602001604052806000815250610fd9565b8061142184611dc4565b600d6040516020016114359392919061289a565b6040516020818303038152906040529392505050565b8260008111801561145e57506011548111155b61147a5760405162461bcd60e51b815260040161100f906127f1565b6010548161148f600154600054036000190190565b6114999190612835565b11156114b75760405162461bcd60e51b815260040161100f9061284d565b8380600f546114c6919061287b565b34101561150b5760405162461bcd60e51b8152602060048201526013602482015272496e73756666696369656e742066756e64732160681b604482015260640161100f565b601254610100900460ff1661156d5760405162461bcd60e51b815260206004820152602260248201527f5468652077686974656c6973742073616c65206973206e6f7420656e61626c65604482015261642160f01b606482015260840161100f565b336000908152600b602052604090205460ff16156115cd5760405162461bcd60e51b815260206004820152601860248201527f4164647265737320616c726561647920636c61696d6564210000000000000000604482015260640161100f565b6040516bffffffffffffffffffffffff193360601b16602082015260009060340160405160208183030381529060405280519060200120905061164785858080602002602001604051908101604052809392919081815260200183836020028082843760009201919091525050600a549150849050611e58565b6116845760405162461bcd60e51b815260206004820152600e60248201526d496e76616c69642070726f6f662160901b604482015260640161100f565b336000818152600b60205260409020805460ff191660011790556116a89087611ca3565b505050505050565b6116b861188e565b60128054911515620100000262ff000019909216919091179055565b6001600160a01b03918216600090815260076020908152604080832093909416825291909152205460ff1690565b8160008111801561171557506011548111155b6117315760405162461bcd60e51b815260040161100f906127f1565b60105481611746600154600054036000190190565b6117509190612835565b111561176e5760405162461bcd60e51b815260040161100f9061284d565b61177661188e565b6109a88284611ca3565b61178861188e565b6001600160a01b0381166117ed5760405162461bcd60e51b815260206004820152602660248201527f4f776e61626c653a206e6577206f776e657220697320746865207a65726f206160448201526564647265737360d01b606482015260840161100f565b6117f681611c51565b50565b60008160011115801561180d575060005482105b801561084a575050600090815260046020526040902054600160e01b900460ff161590565b60008281526006602052604080822080546001600160a01b0319166001600160a01b0387811691821790925591518593918516917f8c5be1e5ebec7d5bd14f71427d1e84f3dd0314c0f7b2291e5b200ac8c7c3b92591a4505050565b6008546001600160a01b03163314610a7e5760405162461bcd60e51b815260206004820181905260248201527f4f776e61626c653a2063616c6c6572206973206e6f7420746865206f776e6572604482015260640161100f565b60006118f382611b2f565b9050836001600160a01b031681600001516001600160a01b03161461192a5760405162a1148160e81b815260040160405180910390fd5b6000336001600160a01b0386161480611948575061194885336116d4565b80611963575033611958846108e2565b6001600160a01b0316145b90508061198357604051632ce44b5f60e11b815260040160405180910390fd5b6001600160a01b0384166119aa57604051633a954ecd60e21b815260040160405180910390fd5b6119b660008487611832565b6001600160a01b038581166000908152600560209081526040808320805467ffffffffffffffff198082166001600160401b0392831660001901831617909255898616808652838620805493841693831660019081018416949094179055898652600490945282852080546001600160e01b031916909417600160a01b42909216919091021783558701808452922080549193909116611a8a576000548214611a8a57805460208601516001600160401b0316600160a01b026001600160e01b03199091166001600160a01b038a16171781555b50505082846001600160a01b0316866001600160a01b03167fddf252ad1be2c89b69c2b068fc378daa952ba7f163c4a11628f55a4df523b3ef60405160405180910390a45050505050565b60026009541415611b285760405162461bcd60e51b815260206004820152601f60248201527f5265656e7472616e637947756172643a207265656e7472616e742063616c6c00604482015260640161100f565b6002600955565b60408051606081018252600080825260208201819052918101919091528180600111611c3857600054811015611c3857600081815260046020908152604091829020825160608101845290546001600160a01b0381168252600160a01b81046001600160401b031692820192909252600160e01b90910460ff16151591810182905290611c365780516001600160a01b031615611bcd579392505050565b5060001901600081815260046020908152604091829020825160608101845290546001600160a01b038116808352600160a01b82046001600160401b031693830193909352600160e01b900460ff1615159281019290925215611c31579392505050565b611bcd565b505b604051636f96cda160e11b815260040160405180910390fd5b600880546001600160a01b038381166001600160a01b0319831681179093556040519116919082907f8be0079c531659141344cd1fd0a4f28419497f9722a3daafe3b4186f6b6457e090600090a35050565b6109c8828260405180602001604052806000815250611e6e565b604051630a85bd0160e11b81526000906001600160a01b0385169063150b7a0290611cf290339089908890889060040161295e565b602060405180830381600087803b158015611d0c57600080fd5b505af1925050508015611d3c575060408051601f3d908101601f19168201909252611d399181019061299b565b60015b611d97573d808015611d6a576040519150601f19603f3d011682016040523d82523d6000602084013e611d6f565b606091505b508051611d8f576040516368d2bf6b60e11b815260040160405180910390fd5b805181602001fd5b6001600160e01b031916630a85bd0160e11b1490505b949350505050565b6060600c805461085f906127a0565b60606000611dd183612032565b60010190506000816001600160401b03811115611df057611df0612311565b6040519080825280601f01601f191660200182016040528015611e1a576020820181803683370190505b5090508181016020015b600019016f181899199a1a9b1b9c1cb0b131b232b360811b600a86061a8153600a8504945084611e5357610c0f565b611e24565b600082611e65858461210a565b14949350505050565b6000546001600160a01b038416611e9757604051622e076360e81b815260040160405180910390fd5b82611eb55760405163b562e8dd60e01b815260040160405180910390fd5b6001600160a01b038416600081815260056020908152604080832080546fffffffffffffffffffffffffffffffff1981166001600160401b038083168b0181169182176801000000000000000067ffffffffffffffff1990941690921783900481168b01811690920217909155858452600490925290912080546001600160e01b0319168317600160a01b42909316929092029190911790558190818501903b15611fdd575b60405182906001600160a01b038816906000907fddf252ad1be2c89b69c2b068fc378daa952ba7f163c4a11628f55a4df523b3ef908290a4611fa66000878480600101955087611cbd565b611fc3576040516368d2bf6b60e11b815260040160405180910390fd5b808210611f5b578260005414611fd857600080fd5b612022565b5b6040516001830192906001600160a01b038816906000907fddf252ad1be2c89b69c2b068fc378daa952ba7f163c4a11628f55a4df523b3ef908290a4808210611fde575b50600090815561121c9085838684565b60008072184f03e93ff9f4daa797ed6e38ed64bf6a1f0160401b83106120715772184f03e93ff9f4daa797ed6e38ed64bf6a1f0160401b830492506040015b6d04ee2d6d415b85acef8100000000831061209d576d04ee2d6d415b85acef8100000000830492506020015b662386f26fc1000083106120bb57662386f26fc10000830492506010015b6305f5e10083106120d3576305f5e100830492506008015b61271083106120e757612710830492506004015b606483106120f9576064830492506002015b600a831061084a5760010192915050565b600081815b8451811015610c0f5761213b8286838151811061212e5761212e6127db565b602002602001015161214f565b915080612147816129b8565b91505061210f565b600081831061216b576000828152602084905260409020610fd9565b5060009182526020526040902090565b828054612187906127a0565b90600052602060002090601f0160209004810192826121a957600085556121ef565b82601f106121c257805160ff19168380011785556121ef565b828001600101855582156121ef579182015b828111156121ef5782518255916020019190600101906121d4565b506121fb9291506121ff565b5090565b5b808211156121fb5760008155600101612200565b6001600160e01b0319811681146117f657600080fd5b60006020828403121561223c57600080fd5b8135610fd981612214565b60005b8381101561226257818101518382015260200161224a565b8381111561121c5750506000910152565b6000815180845261228b816020860160208601612247565b601f01601f19169290920160200192915050565b602081526000610fd96020830184612273565b6000602082840312156122c457600080fd5b5035919050565b80356001600160a01b03811681146122e257600080fd5b919050565b600080604083850312156122fa57600080fd5b612303836122cb565b946020939093013593505050565b634e487b7160e01b600052604160045260246000fd5b604051601f8201601f191681016001600160401b038111828210171561234f5761234f612311565b604052919050565b60006001600160401b0383111561237057612370612311565b612383601f8401601f1916602001612327565b905082815283838301111561239757600080fd5b828260208301376000602084830101529392505050565b6000602082840312156123c057600080fd5b81356001600160401b038111156123d657600080fd5b8201601f810184136123e757600080fd5b611dad84823560208401612357565b803580151581146122e257600080fd5b60006020828403121561241857600080fd5b610fd9826123f6565b60008060006060848603121561243657600080fd5b61243f846122cb565b925061244d602085016122cb565b9150604084013590509250925092565b6000602080838503121561247057600080fd5b82356001600160401b038082111561248757600080fd5b818501915085601f83011261249b57600080fd5b8135818111156124ad576124ad612311565b8060051b91506124be848301612327565b81815291830184019184810190888411156124d857600080fd5b938501935b838510156124f6578435825293850193908501906124dd565b98975050505050505050565b6020808252825182820181905260009190848201906040850190845b81811015610dff5761255983855180516001600160a01b031682526020808201516001600160401b0316908301526040908101511515910152565b928401926060929092019160010161251e565b60006020828403121561257e57600080fd5b610fd9826122cb565b6020808252825182820181905260009190848201906040850190845b81811015610dff578351835292840192918401916001016125a3565b6000806000606084860312156125d457600080fd5b6125dd846122cb565b95602085013595506040909401359392505050565b6000806040838503121561260557600080fd5b61260e836122cb565b915061261c602084016123f6565b90509250929050565b6000806000806080858703121561263b57600080fd5b612644856122cb565b9350612652602086016122cb565b92506040850135915060608501356001600160401b0381111561267457600080fd5b8501601f8101871361268557600080fd5b61269487823560208401612357565b91505092959194509250565b81516001600160a01b031681526020808301516001600160401b0316908201526040808301511515908201526060810161084a565b6000806000604084860312156126ea57600080fd5b8335925060208401356001600160401b038082111561270857600080fd5b818601915086601f83011261271c57600080fd5b81358181111561272b57600080fd5b8760208260051b850101111561274057600080fd5b6020830194508093505050509250925092565b6000806040838503121561276657600080fd5b61276f836122cb565b915061261c602084016122cb565b6000806040838503121561279057600080fd5b8235915061261c602084016122cb565b600181811c908216806127b457607f821691505b602082108114156127d557634e487b7160e01b600052602260045260246000fd5b50919050565b634e487b7160e01b600052603260045260246000fd5b602080825260149082015273496e76616c6964206d696e7420616d6f756e742160601b604082015260600190565b634e487b7160e01b600052601160045260246000fd5b600082198211156128485761284861281f565b500190565b6020808252601490820152734d617820737570706c792065786365656465642160601b604082015260600190565b60008160001904831182151516156128955761289561281f565b500290565b6000845160206128ad8285838a01612247565b8551918401916128c08184848a01612247565b8554920191600090600181811c90808316806128dd57607f831692505b8583108114156128fb57634e487b7160e01b85526022600452602485fd5b80801561290f57600181146129205761294d565b60ff1985168852838801955061294d565b60008b81526020902060005b858110156129455781548a82015290840190880161292c565b505083880195505b50939b9a5050505050505050505050565b6001600160a01b038581168252841660208201526040810183905260806060820181905260009061299190830184612273565b9695505050505050565b6000602082840312156129ad57600080fd5b8151610fd981612214565b60006000198214156129cc576129cc61281f565b506001019056fea26469706673582212208019161cfa96d609d645236967989e72eb49e1c9dda5de13291d09243f1d709c64736f6c63430008090033",
  "linkReferences": {},
  "deployedLinkReferences": {}
}